{
  "address": "0xe7f1725E7734CE288F8367e1Bb143E90bb3F0512",
  "abi": [
    {
      "inputs": [
        {
          "internalType": "address",
          "name": "priceFeedAddress",
          "type": "address"
        }
      ],
      "stateMutability": "nonpayable",
      "type": "constructor"
    },
    {
      "inputs": [],
      "name": "Fund__NotOwner",
      "type": "error"
    },
    {
      "stateMutability": "payable",
      "type": "fallback"
    },
    {
      "inputs": [],
      "name": "MINIMUM_USD",
      "outputs": [
        {
          "internalType": "uint256",
          "name": "",
          "type": "uint256"
        }
      ],
      "stateMutability": "view",
      "type": "function"
    },
    {
      "inputs": [],
      "name": "cheaperWithdraw",
      "outputs": [],
      "stateMutability": "payable",
      "type": "function"
    },
    {
      "inputs": [],
      "name": "fund",
      "outputs": [],
      "stateMutability": "payable",
      "type": "function"
    },
    {
      "inputs": [
        {
          "internalType": "address",
          "name": "fundingAddress",
          "type": "address"
        }
      ],
      "name": "getAddressToAmountFunded",
      "outputs": [
        {
          "internalType": "uint256",
          "name": "",
          "type": "uint256"
        }
      ],
      "stateMutability": "view",
      "type": "function"
    },
    {
      "inputs": [
        {
          "internalType": "uint256",
          "name": "index",
          "type": "uint256"
        }
      ],
      "name": "getFunder",
      "outputs": [
        {
          "internalType": "address",
          "name": "",
          "type": "address"
        }
      ],
      "stateMutability": "view",
      "type": "function"
    },
    {
      "inputs": [],
      "name": "getOwner",
      "outputs": [
        {
          "internalType": "address",
          "name": "",
          "type": "address"
        }
      ],
      "stateMutability": "view",
      "type": "function"
    },
    {
      "inputs": [],
      "name": "getPriceFeed",
      "outputs": [
        {
          "internalType": "contract AggregatorV3Interface",
          "name": "",
          "type": "address"
        }
      ],
      "stateMutability": "view",
      "type": "function"
    },
    {
      "inputs": [],
      "name": "getVersion",
      "outputs": [
        {
          "internalType": "uint256",
          "name": "",
          "type": "uint256"
        }
      ],
      "stateMutability": "view",
      "type": "function"
    },
    {
      "inputs": [],
      "name": "i_owner",
      "outputs": [
        {
          "internalType": "address",
          "name": "",
          "type": "address"
        }
      ],
      "stateMutability": "view",
      "type": "function"
    },
    {
      "inputs": [
        {
          "internalType": "address",
          "name": "",
          "type": "address"
        }
      ],
      "name": "s_addressToAmountFunded",
      "outputs": [
        {
          "internalType": "uint256",
          "name": "",
          "type": "uint256"
        }
      ],
      "stateMutability": "view",
      "type": "function"
    },
    {
      "inputs": [
        {
          "internalType": "uint256",
          "name": "",
          "type": "uint256"
        }
      ],
      "name": "s_funders",
      "outputs": [
        {
          "internalType": "address",
          "name": "",
          "type": "address"
        }
      ],
      "stateMutability": "view",
      "type": "function"
    },
    {
      "inputs": [],
      "name": "s_priceFeed",
      "outputs": [
        {
          "internalType": "contract AggregatorV3Interface",
          "name": "",
          "type": "address"
        }
      ],
      "stateMutability": "view",
      "type": "function"
    },
    {
      "inputs": [],
      "name": "withdraw",
      "outputs": [],
      "stateMutability": "payable",
      "type": "function"
    },
    {
      "stateMutability": "payable",
      "type": "receive"
    }
  ],
  "transactionHash": "0x72c9ee94abecc7d19764a8b8048cfb079f3635c54030cac8016e309f1a9d11c6",
  "args": [
    "0x5FbDB2315678afecb367f032d93F642f64180aa3"
  ],
  "numDeployments": 1,
  "solcInputHash": "32d77ad1a14b2b7a361eb9d708d1cc77",
  "bytecode": "0x60806040523480156200001157600080fd5b50604051620010f7380380620010f783398181016040528101906200003791906200012a565b33600260006101000a81548173ffffffffffffffffffffffffffffffffffffffff021916908373ffffffffffffffffffffffffffffffffffffffff16021790555080600360006101000a81548173ffffffffffffffffffffffffffffffffffffffff021916908373ffffffffffffffffffffffffffffffffffffffff160217905550506200015c565b600080fd5b600073ffffffffffffffffffffffffffffffffffffffff82169050919050565b6000620000f282620000c5565b9050919050565b6200010481620000e5565b81146200011057600080fd5b50565b6000815190506200012481620000f9565b92915050565b600060208284031215620001435762000142620000c0565b5b6000620001538482850162000113565b91505092915050565b610f8b806200016c6000396000f3fe6080604052600436106100c65760003560e01c80636b69a5921161007f578063b60d428811610059578063b60d428814610277578063be2693f014610281578063d7b4750c1461028b578063dba6335f146102c8576100d5565b80636b69a592146101f6578063893d20e8146102215780639e87a5cd1461024c576100d5565b80630343fb25146100df5780630d8e6e2c1461011c5780630ec3b027146101475780631bf6132d146101725780633ccfd60b146101af57806354861af7146101b9576100d5565b366100d5576100d36102f3565b005b6100dd6102f3565b005b3480156100eb57600080fd5b5061010660048036038101906101019190610bc6565b6103ad565b6040516101139190610c0c565b60405180910390f35b34801561012857600080fd5b506101316103f5565b60405161013e9190610c0c565b60405180910390f35b34801561015357600080fd5b5061015c61049c565b6040516101699190610c86565b60405180910390f35b34801561017e57600080fd5b5061019960048036038101906101949190610bc6565b6104c2565b6040516101a69190610c0c565b60405180910390f35b6101b76104da565b005b3480156101c557600080fd5b506101e060048036038101906101db9190610ccd565b61071c565b6040516101ed9190610d09565b60405180910390f35b34801561020257600080fd5b5061020b61075b565b6040516102189190610c0c565b60405180910390f35b34801561022d57600080fd5b50610236610768565b6040516102439190610d09565b60405180910390f35b34801561025857600080fd5b50610261610792565b60405161026e9190610c86565b60405180910390f35b61027f6102f3565b005b6102896107bc565b005b34801561029757600080fd5b506102b260048036038101906102ad9190610ccd565b610a4e565b6040516102bf9190610d09565b60405180910390f35b3480156102d457600080fd5b506102dd610a96565b6040516102ea9190610d09565b60405180910390f35b346000803373ffffffffffffffffffffffffffffffffffffffff1673ffffffffffffffffffffffffffffffffffffffff16815260200190815260200160002060008282546103419190610d53565b925050819055506001339080600181540180825580915050600190039060005260206000200160009091909190916101000a81548173ffffffffffffffffffffffffffffffffffffffff021916908373ffffffffffffffffffffffffffffffffffffffff160217905550565b60008060008373ffffffffffffffffffffffffffffffffffffffff1673ffffffffffffffffffffffffffffffffffffffff168152602001908152602001600020549050919050565b6000600360009054906101000a900473ffffffffffffffffffffffffffffffffffffffff1673ffffffffffffffffffffffffffffffffffffffff166354fd4d506040518163ffffffff1660e01b815260040160206040518083038186803b15801561045f57600080fd5b505afa158015610473573d6000803e3d6000fd5b505050506040513d601f19601f820116820180604052508101906104979190610dbe565b905090565b600360009054906101000a900473ffffffffffffffffffffffffffffffffffffffff1681565b60006020528060005260406000206000915090505481565b600260009054906101000a900473ffffffffffffffffffffffffffffffffffffffff1673ffffffffffffffffffffffffffffffffffffffff163373ffffffffffffffffffffffffffffffffffffffff1614610561576040517fa9b8b84d00000000000000000000000000000000000000000000000000000000815260040160405180910390fd5b60005b60018054905081101561060c5760006001828154811061058757610586610deb565b5b9060005260206000200160009054906101000a900473ffffffffffffffffffffffffffffffffffffffff16905060008060008373ffffffffffffffffffffffffffffffffffffffff1673ffffffffffffffffffffffffffffffffffffffff1681526020019081526020016000208190555050808061060490610e1a565b915050610564565b50600067ffffffffffffffff81111561062857610627610e63565b5b6040519080825280602002602001820160405280156106565781602001602082028036833780820191505090505b506001908051906020019061066c929190610abc565b5060003373ffffffffffffffffffffffffffffffffffffffff164760405161069390610ec3565b60006040518083038185875af1925050503d80600081146106d0576040519150601f19603f3d011682016040523d82523d6000602084013e6106d5565b606091505b5050905080610719576040517f08c379a000000000000000000000000000000000000000000000000000000000815260040161071090610f35565b60405180910390fd5b50565b6001818154811061072c57600080fd5b906000526020600020016000915054906101000a900473ffffffffffffffffffffffffffffffffffffffff1681565b6802b5e3af16b188000081565b6000600260009054906101000a900473ffffffffffffffffffffffffffffffffffffffff16905090565b6000600360009054906101000a900473ffffffffffffffffffffffffffffffffffffffff16905090565b600260009054906101000a900473ffffffffffffffffffffffffffffffffffffffff1673ffffffffffffffffffffffffffffffffffffffff163373ffffffffffffffffffffffffffffffffffffffff1614610843576040517fa9b8b84d00000000000000000000000000000000000000000000000000000000815260040160405180910390fd5b600060018054806020026020016040519081016040528092919081815260200182805480156108c757602002820191906000526020600020905b8160009054906101000a900473ffffffffffffffffffffffffffffffffffffffff1673ffffffffffffffffffffffffffffffffffffffff168152602001906001019080831161087d575b5050505050905060005b81518110156109515760008282815181106108ef576108ee610deb565b5b6020026020010151905060008060008373ffffffffffffffffffffffffffffffffffffffff1673ffffffffffffffffffffffffffffffffffffffff1681526020019081526020016000208190555050808061094990610e1a565b9150506108d1565b50600067ffffffffffffffff81111561096d5761096c610e63565b5b60405190808252806020026020018201604052801561099b5781602001602082028036833780820191505090505b50600190805190602001906109b1929190610abc565b506000600260009054906101000a900473ffffffffffffffffffffffffffffffffffffffff1673ffffffffffffffffffffffffffffffffffffffff16476040516109fa90610ec3565b60006040518083038185875af1925050503d8060008114610a37576040519150601f19603f3d011682016040523d82523d6000602084013e610a3c565b606091505b5050905080610a4a57600080fd5b5050565b600060018281548110610a6457610a63610deb565b5b9060005260206000200160009054906101000a900473ffffffffffffffffffffffffffffffffffffffff169050919050565b600260009054906101000a900473ffffffffffffffffffffffffffffffffffffffff1681565b828054828255906000526020600020908101928215610b35579160200282015b82811115610b345782518260006101000a81548173ffffffffffffffffffffffffffffffffffffffff021916908373ffffffffffffffffffffffffffffffffffffffff16021790555091602001919060010190610adc565b5b509050610b429190610b46565b5090565b5b80821115610b5f576000816000905550600101610b47565b5090565b600080fd5b600073ffffffffffffffffffffffffffffffffffffffff82169050919050565b6000610b9382610b68565b9050919050565b610ba381610b88565b8114610bae57600080fd5b50565b600081359050610bc081610b9a565b92915050565b600060208284031215610bdc57610bdb610b63565b5b6000610bea84828501610bb1565b91505092915050565b6000819050919050565b610c0681610bf3565b82525050565b6000602082019050610c216000830184610bfd565b92915050565b6000819050919050565b6000610c4c610c47610c4284610b68565b610c27565b610b68565b9050919050565b6000610c5e82610c31565b9050919050565b6000610c7082610c53565b9050919050565b610c8081610c65565b82525050565b6000602082019050610c9b6000830184610c77565b92915050565b610caa81610bf3565b8114610cb557600080fd5b50565b600081359050610cc781610ca1565b92915050565b600060208284031215610ce357610ce2610b63565b5b6000610cf184828501610cb8565b91505092915050565b610d0381610b88565b82525050565b6000602082019050610d1e6000830184610cfa565b92915050565b7f4e487b7100000000000000000000000000000000000000000000000000000000600052601160045260246000fd5b6000610d5e82610bf3565b9150610d6983610bf3565b9250827fffffffffffffffffffffffffffffffffffffffffffffffffffffffffffffffff03821115610d9e57610d9d610d24565b5b828201905092915050565b600081519050610db881610ca1565b92915050565b600060208284031215610dd457610dd3610b63565b5b6000610de284828501610da9565b91505092915050565b7f4e487b7100000000000000000000000000000000000000000000000000000000600052603260045260246000fd5b6000610e2582610bf3565b91507fffffffffffffffffffffffffffffffffffffffffffffffffffffffffffffffff821415610e5857610e57610d24565b5b600182019050919050565b7f4e487b7100000000000000000000000000000000000000000000000000000000600052604160045260246000fd5b600081905092915050565b50565b6000610ead600083610e92565b9150610eb882610e9d565b600082019050919050565b6000610ece82610ea0565b9150819050919050565b600082825260208201905092915050565b7f43616c6c206661696c6564000000000000000000000000000000000000000000600082015250565b6000610f1f600b83610ed8565b9150610f2a82610ee9565b602082019050919050565b60006020820190508181036000830152610f4e81610f12565b905091905056fea26469706673582212206e97d6eb947f17dd23eebda2b889048a9220b23846e0a9d67f1af2fe3ef7be0464736f6c63430008080033",
  "devdoc": {
    "kind": "dev",
    "methods": {},
    "version": 1
  },
  "userdoc": {
    "kind": "user",
    "methods": {},
    "version": 1
  },
  "storageLayout": {
    "storage": [
      {
        "astId": 58,
        "contract": "contracts/FundMe.sol:FundMe",
        "label": "s_addressToAmountFunded",
        "offset": 0,
        "slot": "0",
        "type": "t_mapping(t_address,t_uint256)"
      },
      {
        "astId": 61,
        "contract": "contracts/FundMe.sol:FundMe",
        "label": "s_funders",
        "offset": 0,
        "slot": "1",
        "type": "t_array(t_address)dyn_storage"
      },
      {
        "astId": 63,
        "contract": "contracts/FundMe.sol:FundMe",
        "label": "i_owner",
        "offset": 0,
        "slot": "2",
        "type": "t_address"
      },
      {
        "astId": 73,
        "contract": "contracts/FundMe.sol:FundMe",
        "label": "s_priceFeed",
        "offset": 0,
        "slot": "3",
        "type": "t_contract(AggregatorV3Interface)45"
      }
    ],
    "types": {
      "t_address": {
        "encoding": "inplace",
        "label": "address",
        "numberOfBytes": "20"
      },
      "t_array(t_address)dyn_storage": {
        "base": "t_address",
        "encoding": "dynamic_array",
        "label": "address[]",
        "numberOfBytes": "32"
      },
      "t_contract(AggregatorV3Interface)45": {
        "encoding": "inplace",
        "label": "contract AggregatorV3Interface",
        "numberOfBytes": "20"
      },
      "t_mapping(t_address,t_uint256)": {
        "encoding": "mapping",
        "key": "t_address",
        "label": "mapping(address => uint256)",
        "numberOfBytes": "32",
        "value": "t_uint256"
      },
      "t_uint256": {
        "encoding": "inplace",
        "label": "uint256",
        "numberOfBytes": "32"
      }
    }
  }
}