{
  "address": "0x1B1a00D5AD559bd779B81F12A3B982d5ab323A25",
  "abi": [
    {
      "inputs": [
        {
          "internalType": "address",
          "name": "priceFeedAddress",
          "type": "address"
        }
      ],
      "stateMutability": "nonpayable",
      "type": "constructor"
    },
    {
      "inputs": [],
      "name": "Fund__NotOwner",
      "type": "error"
    },
    {
      "stateMutability": "payable",
      "type": "fallback"
    },
    {
      "inputs": [],
      "name": "MINIMUM_USD",
      "outputs": [
        {
          "internalType": "uint256",
          "name": "",
          "type": "uint256"
        }
      ],
      "stateMutability": "view",
      "type": "function"
    },
    {
      "inputs": [],
      "name": "cheaperWithdraw",
      "outputs": [],
      "stateMutability": "payable",
      "type": "function"
    },
    {
      "inputs": [],
      "name": "fund",
      "outputs": [],
      "stateMutability": "payable",
      "type": "function"
    },
    {
      "inputs": [
        {
          "internalType": "address",
          "name": "fundingAddress",
          "type": "address"
        }
      ],
      "name": "getAddressToAmountFunded",
      "outputs": [
        {
          "internalType": "uint256",
          "name": "",
          "type": "uint256"
        }
      ],
      "stateMutability": "view",
      "type": "function"
    },
    {
      "inputs": [
        {
          "internalType": "uint256",
          "name": "index",
          "type": "uint256"
        }
      ],
      "name": "getFunder",
      "outputs": [
        {
          "internalType": "address",
          "name": "",
          "type": "address"
        }
      ],
      "stateMutability": "view",
      "type": "function"
    },
    {
      "inputs": [],
      "name": "getOwner",
      "outputs": [
        {
          "internalType": "address",
          "name": "",
          "type": "address"
        }
      ],
      "stateMutability": "view",
      "type": "function"
    },
    {
      "inputs": [],
      "name": "getPriceFeed",
      "outputs": [
        {
          "internalType": "contract AggregatorV3Interface",
          "name": "",
          "type": "address"
        }
      ],
      "stateMutability": "view",
      "type": "function"
    },
    {
      "inputs": [],
      "name": "getVersion",
      "outputs": [
        {
          "internalType": "uint256",
          "name": "",
          "type": "uint256"
        }
      ],
      "stateMutability": "view",
      "type": "function"
    },
    {
      "inputs": [],
      "name": "i_owner",
      "outputs": [
        {
          "internalType": "address",
          "name": "",
          "type": "address"
        }
      ],
      "stateMutability": "view",
      "type": "function"
    },
    {
      "inputs": [
        {
          "internalType": "address",
          "name": "",
          "type": "address"
        }
      ],
      "name": "s_addressToAmountFunded",
      "outputs": [
        {
          "internalType": "uint256",
          "name": "",
          "type": "uint256"
        }
      ],
      "stateMutability": "view",
      "type": "function"
    },
    {
      "inputs": [
        {
          "internalType": "uint256",
          "name": "",
          "type": "uint256"
        }
      ],
      "name": "s_funders",
      "outputs": [
        {
          "internalType": "address",
          "name": "",
          "type": "address"
        }
      ],
      "stateMutability": "view",
      "type": "function"
    },
    {
      "inputs": [],
      "name": "s_priceFeed",
      "outputs": [
        {
          "internalType": "contract AggregatorV3Interface",
          "name": "",
          "type": "address"
        }
      ],
      "stateMutability": "view",
      "type": "function"
    },
    {
      "inputs": [],
      "name": "withdraw",
      "outputs": [],
      "stateMutability": "payable",
      "type": "function"
    },
    {
      "stateMutability": "payable",
      "type": "receive"
    }
  ],
  "transactionHash": "0x69fdbc60ae48a6b0cf784042af76cc2ee8c4a85f69a3935959e1402eda09e56e",
  "args": [
    "0x5f4eC3Df9cbd43714FE2740f5E3616155c5b8419"
  ],
  "numDeployments": 2,
  "solcInputHash": "8f6219f6950c2c7109cc2a29f1110ca8",
  "bytecode": "0x60806040523480156200001157600080fd5b50604051620015833803806200158383398181016040528101906200003791906200012a565b33600260006101000a81548173ffffffffffffffffffffffffffffffffffffffff021916908373ffffffffffffffffffffffffffffffffffffffff16021790555080600360006101000a81548173ffffffffffffffffffffffffffffffffffffffff021916908373ffffffffffffffffffffffffffffffffffffffff160217905550506200015c565b600080fd5b600073ffffffffffffffffffffffffffffffffffffffff82169050919050565b6000620000f282620000c5565b9050919050565b6200010481620000e5565b81146200011057600080fd5b50565b6000815190506200012481620000f9565b92915050565b600060208284031215620001435762000142620000c0565b5b6000620001538482850162000113565b91505092915050565b611417806200016c6000396000f3fe6080604052600436106100c65760003560e01c80636b69a5921161007f578063b60d428811610059578063b60d428814610277578063be2693f014610281578063d7b4750c1461028b578063dba6335f146102c8576100d5565b80636b69a592146101f6578063893d20e8146102215780639e87a5cd1461024c576100d5565b80630343fb25146100df5780630d8e6e2c1461011c5780630ec3b027146101475780631bf6132d146101725780633ccfd60b146101af57806354861af7146101b9576100d5565b366100d5576100d36102f3565b005b6100dd6102f3565b005b3480156100eb57600080fd5b5061010660048036038101906101019190610d22565b61042d565b6040516101139190610d68565b60405180910390f35b34801561012857600080fd5b50610131610475565b60405161013e9190610d68565b60405180910390f35b34801561015357600080fd5b5061015c61051c565b6040516101699190610de2565b60405180910390f35b34801561017e57600080fd5b5061019960048036038101906101949190610d22565b610542565b6040516101a69190610d68565b60405180910390f35b6101b761055a565b005b3480156101c557600080fd5b506101e060048036038101906101db9190610e29565b61079c565b6040516101ed9190610e65565b60405180910390f35b34801561020257600080fd5b5061020b6107db565b6040516102189190610d68565b60405180910390f35b34801561022d57600080fd5b506102366107e8565b6040516102439190610e65565b60405180910390f35b34801561025857600080fd5b50610261610812565b60405161026e9190610de2565b60405180910390f35b61027f6102f3565b005b61028961083c565b005b34801561029757600080fd5b506102b260048036038101906102ad9190610e29565b610ace565b6040516102bf9190610e65565b60405180910390f35b3480156102d457600080fd5b506102dd610b16565b6040516102ea9190610e65565b60405180910390f35b6802b5e3af16b1880000610332600360009054906101000a900473ffffffffffffffffffffffffffffffffffffffff1634610b3c90919063ffffffff16565b1015610373576040517f08c379a000000000000000000000000000000000000000000000000000000000815260040161036a90610edd565b60405180910390fd5b346000803373ffffffffffffffffffffffffffffffffffffffff1673ffffffffffffffffffffffffffffffffffffffff16815260200190815260200160002060008282546103c19190610f2c565b925050819055506001339080600181540180825580915050600190039060005260206000200160009091909190916101000a81548173ffffffffffffffffffffffffffffffffffffffff021916908373ffffffffffffffffffffffffffffffffffffffff160217905550565b60008060008373ffffffffffffffffffffffffffffffffffffffff1673ffffffffffffffffffffffffffffffffffffffff168152602001908152602001600020549050919050565b6000600360009054906101000a900473ffffffffffffffffffffffffffffffffffffffff1673ffffffffffffffffffffffffffffffffffffffff166354fd4d506040518163ffffffff1660e01b815260040160206040518083038186803b1580156104df57600080fd5b505afa1580156104f3573d6000803e3d6000fd5b505050506040513d601f19601f820116820180604052508101906105179190610f97565b905090565b600360009054906101000a900473ffffffffffffffffffffffffffffffffffffffff1681565b60006020528060005260406000206000915090505481565b600260009054906101000a900473ffffffffffffffffffffffffffffffffffffffff1673ffffffffffffffffffffffffffffffffffffffff163373ffffffffffffffffffffffffffffffffffffffff16146105e1576040517fa9b8b84d00000000000000000000000000000000000000000000000000000000815260040160405180910390fd5b60005b60018054905081101561068c5760006001828154811061060757610606610fc4565b5b9060005260206000200160009054906101000a900473ffffffffffffffffffffffffffffffffffffffff16905060008060008373ffffffffffffffffffffffffffffffffffffffff1673ffffffffffffffffffffffffffffffffffffffff1681526020019081526020016000208190555050808061068490610ff3565b9150506105e4565b50600067ffffffffffffffff8111156106a8576106a761103c565b5b6040519080825280602002602001820160405280156106d65781602001602082028036833780820191505090505b50600190805190602001906106ec929190610c18565b5060003373ffffffffffffffffffffffffffffffffffffffff16476040516107139061109c565b60006040518083038185875af1925050503d8060008114610750576040519150601f19603f3d011682016040523d82523d6000602084013e610755565b606091505b5050905080610799576040517f08c379a0000000000000000000000000000000000000000000000000000000008152600401610790906110fd565b60405180910390fd5b50565b600181815481106107ac57600080fd5b906000526020600020016000915054906101000a900473ffffffffffffffffffffffffffffffffffffffff1681565b6802b5e3af16b188000081565b6000600260009054906101000a900473ffffffffffffffffffffffffffffffffffffffff16905090565b6000600360009054906101000a900473ffffffffffffffffffffffffffffffffffffffff16905090565b600260009054906101000a900473ffffffffffffffffffffffffffffffffffffffff1673ffffffffffffffffffffffffffffffffffffffff163373ffffffffffffffffffffffffffffffffffffffff16146108c3576040517fa9b8b84d00000000000000000000000000000000000000000000000000000000815260040160405180910390fd5b6000600180548060200260200160405190810160405280929190818152602001828054801561094757602002820191906000526020600020905b8160009054906101000a900473ffffffffffffffffffffffffffffffffffffffff1673ffffffffffffffffffffffffffffffffffffffff16815260200190600101908083116108fd575b5050505050905060005b81518110156109d157600082828151811061096f5761096e610fc4565b5b6020026020010151905060008060008373ffffffffffffffffffffffffffffffffffffffff1673ffffffffffffffffffffffffffffffffffffffff168152602001908152602001600020819055505080806109c990610ff3565b915050610951565b50600067ffffffffffffffff8111156109ed576109ec61103c565b5b604051908082528060200260200182016040528015610a1b5781602001602082028036833780820191505090505b5060019080519060200190610a31929190610c18565b506000600260009054906101000a900473ffffffffffffffffffffffffffffffffffffffff1673ffffffffffffffffffffffffffffffffffffffff1647604051610a7a9061109c565b60006040518083038185875af1925050503d8060008114610ab7576040519150601f19603f3d011682016040523d82523d6000602084013e610abc565b606091505b5050905080610aca57600080fd5b5050565b600060018281548110610ae457610ae3610fc4565b5b9060005260206000200160009054906101000a900473ffffffffffffffffffffffffffffffffffffffff169050919050565b600260009054906101000a900473ffffffffffffffffffffffffffffffffffffffff1681565b600080610b4883610b78565b90506000670de0b6b3a76400008583610b61919061111d565b610b6b91906111a6565b9050809250505092915050565b6000808273ffffffffffffffffffffffffffffffffffffffff1663feaf968c6040518163ffffffff1660e01b815260040160a06040518083038186803b158015610bc157600080fd5b505afa158015610bd5573d6000803e3d6000fd5b505050506040513d601f19601f82011682018060405250810190610bf9919061124f565b5050509150506402540be40081610c1091906112ca565b915050919050565b828054828255906000526020600020908101928215610c91579160200282015b82811115610c905782518260006101000a81548173ffffffffffffffffffffffffffffffffffffffff021916908373ffffffffffffffffffffffffffffffffffffffff16021790555091602001919060010190610c38565b5b509050610c9e9190610ca2565b5090565b5b80821115610cbb576000816000905550600101610ca3565b5090565b600080fd5b600073ffffffffffffffffffffffffffffffffffffffff82169050919050565b6000610cef82610cc4565b9050919050565b610cff81610ce4565b8114610d0a57600080fd5b50565b600081359050610d1c81610cf6565b92915050565b600060208284031215610d3857610d37610cbf565b5b6000610d4684828501610d0d565b91505092915050565b6000819050919050565b610d6281610d4f565b82525050565b6000602082019050610d7d6000830184610d59565b92915050565b6000819050919050565b6000610da8610da3610d9e84610cc4565b610d83565b610cc4565b9050919050565b6000610dba82610d8d565b9050919050565b6000610dcc82610daf565b9050919050565b610ddc81610dc1565b82525050565b6000602082019050610df76000830184610dd3565b92915050565b610e0681610d4f565b8114610e1157600080fd5b50565b600081359050610e2381610dfd565b92915050565b600060208284031215610e3f57610e3e610cbf565b5b6000610e4d84828501610e14565b91505092915050565b610e5f81610ce4565b82525050565b6000602082019050610e7a6000830184610e56565b92915050565b600082825260208201905092915050565b7f596f75206e65656420746f207370656e64206d6f726520455448210000000000600082015250565b6000610ec7601b83610e80565b9150610ed282610e91565b602082019050919050565b60006020820190508181036000830152610ef681610eba565b9050919050565b7f4e487b7100000000000000000000000000000000000000000000000000000000600052601160045260246000fd5b6000610f3782610d4f565b9150610f4283610d4f565b9250827fffffffffffffffffffffffffffffffffffffffffffffffffffffffffffffffff03821115610f7757610f76610efd565b5b828201905092915050565b600081519050610f9181610dfd565b92915050565b600060208284031215610fad57610fac610cbf565b5b6000610fbb84828501610f82565b91505092915050565b7f4e487b7100000000000000000000000000000000000000000000000000000000600052603260045260246000fd5b6000610ffe82610d4f565b91507fffffffffffffffffffffffffffffffffffffffffffffffffffffffffffffffff82141561103157611030610efd565b5b600182019050919050565b7f4e487b7100000000000000000000000000000000000000000000000000000000600052604160045260246000fd5b600081905092915050565b50565b600061108660008361106b565b915061109182611076565b600082019050919050565b60006110a782611079565b9150819050919050565b7f43616c6c206661696c6564000000000000000000000000000000000000000000600082015250565b60006110e7600b83610e80565b91506110f2826110b1565b602082019050919050565b60006020820190508181036000830152611116816110da565b9050919050565b600061112882610d4f565b915061113383610d4f565b9250817fffffffffffffffffffffffffffffffffffffffffffffffffffffffffffffffff048311821515161561116c5761116b610efd565b5b828202905092915050565b7f4e487b7100000000000000000000000000000000000000000000000000000000600052601260045260246000fd5b60006111b182610d4f565b91506111bc83610d4f565b9250826111cc576111cb611177565b5b828204905092915050565b600069ffffffffffffffffffff82169050919050565b6111f6816111d7565b811461120157600080fd5b50565b600081519050611213816111ed565b92915050565b6000819050919050565b61122c81611219565b811461123757600080fd5b50565b60008151905061124981611223565b92915050565b600080600080600060a0868803121561126b5761126a610cbf565b5b600061127988828901611204565b955050602061128a8882890161123a565b945050604061129b88828901610f82565b93505060606112ac88828901610f82565b92505060806112bd88828901611204565b9150509295509295909350565b60006112d582611219565b91506112e083611219565b9250827f7fffffffffffffffffffffffffffffffffffffffffffffffffffffffffffffff048211600084136000841316161561131f5761131e610efd565b5b817f8000000000000000000000000000000000000000000000000000000000000000058312600084126000841316161561135c5761135b610efd565b5b827f8000000000000000000000000000000000000000000000000000000000000000058212600084136000841216161561139957611398610efd565b5b827f7fffffffffffffffffffffffffffffffffffffffffffffffffffffffffffffff05821260008412600084121616156113d6576113d5610efd565b5b82820290509291505056fea2646970667358221220944cc993951b612d11cec4f8235422e4b299a159140acce67089c5f4f5ca24b464736f6c63430008080033",
  "devdoc": {
    "kind": "dev",
    "methods": {},
    "version": 1
  },
  "userdoc": {
    "kind": "user",
    "methods": {},
    "version": 1
  },
  "storageLayout": {
    "storage": [
      {
        "astId": 58,
        "contract": "contracts/FundMe.sol:FundMe",
        "label": "s_addressToAmountFunded",
        "offset": 0,
        "slot": "0",
        "type": "t_mapping(t_address,t_uint256)"
      },
      {
        "astId": 61,
        "contract": "contracts/FundMe.sol:FundMe",
        "label": "s_funders",
        "offset": 0,
        "slot": "1",
        "type": "t_array(t_address)dyn_storage"
      },
      {
        "astId": 63,
        "contract": "contracts/FundMe.sol:FundMe",
        "label": "i_owner",
        "offset": 0,
        "slot": "2",
        "type": "t_address"
      },
      {
        "astId": 73,
        "contract": "contracts/FundMe.sol:FundMe",
        "label": "s_priceFeed",
        "offset": 0,
        "slot": "3",
        "type": "t_contract(AggregatorV3Interface)45"
      }
    ],
    "types": {
      "t_address": {
        "encoding": "inplace",
        "label": "address",
        "numberOfBytes": "20"
      },
      "t_array(t_address)dyn_storage": {
        "base": "t_address",
        "encoding": "dynamic_array",
        "label": "address[]",
        "numberOfBytes": "32"
      },
      "t_contract(AggregatorV3Interface)45": {
        "encoding": "inplace",
        "label": "contract AggregatorV3Interface",
        "numberOfBytes": "20"
      },
      "t_mapping(t_address,t_uint256)": {
        "encoding": "mapping",
        "key": "t_address",
        "label": "mapping(address => uint256)",
        "numberOfBytes": "32",
        "value": "t_uint256"
      },
      "t_uint256": {
        "encoding": "inplace",
        "label": "uint256",
        "numberOfBytes": "32"
      }
    }
  }
}